{"abi":[{"type":"constructor","inputs":[{"name":"_manager","type":"address","internalType":"contract IPoolManager"},{"name":"_vaultManager","type":"address","internalType":"contract IVaultManager"}],"stateMutability":"nonpayable"},{"type":"function","name":"CRASH_BRAKE_DROP_PCT","inputs":[],"outputs":[{"name":"","type":"uint256","internalType":"uint256"}],"stateMutability":"view"},{"type":"function","name":"CRASH_BRAKE_DURATION","inputs":[],"outputs":[{"name":"","type":"uint256","internalType":"uint256"}],"stateMutability":"view"},{"type":"function","name":"DRAWDOWN_BRAKE_DURATION","inputs":[],"outputs":[{"name":"","type":"uint256","internalType":"uint256"}],"stateMutability":"view"},{"type":"function","name":"DRAWDOWN_BRAKE_PCT","inputs":[],"outputs":[{"name":"","type":"uint256","internalType":"uint256"}],"stateMutability":"view"},{"type":"function","name":"VAULT_MANAGER","inputs":[],"outputs":[{"name":"","type":"address","internalType":"contract IVaultManager"}],"stateMutability":"view"},{"type":"function","name":"afterAddLiquidity","inputs":[{"name":"sender","type":"address","internalType":"address"},{"name":"key","type":"tuple","internalType":"struct PoolKey","components":[{"name":"currency0","type":"address","internalType":"Currency"},{"name":"currency1","type":"address","internalType":"Currency"},{"name":"fee","type":"uint24","internalType":"uint24"},{"name":"tickSpacing","type":"int24","internalType":"int24"},{"name":"hooks","type":"address","internalType":"contract IHooks"}]},{"name":"params","type":"tuple","internalType":"struct ModifyLiquidityParams","components":[{"name":"tickLower","type":"int24","internalType":"int24"},{"name":"tickUpper","type":"int24","internalType":"int24"},{"name":"liquidityDelta","type":"int256","internalType":"int256"},{"name":"salt","type":"bytes32","internalType":"bytes32"}]},{"name":"delta","type":"int256","internalType":"BalanceDelta"},{"name":"feesAccrued","type":"int256","internalType":"BalanceDelta"},{"name":"hookData","type":"bytes","internalType":"bytes"}],"outputs":[{"name":"","type":"bytes4","internalType":"bytes4"},{"name":"","type":"int256","internalType":"BalanceDelta"}],"stateMutability":"nonpayable"},{"type":"function","name":"afterDonate","inputs":[{"name":"sender","type":"address","internalType":"address"},{"name":"key","type":"tuple","internalType":"struct PoolKey","components":[{"name":"currency0","type":"address","internalType":"Currency"},{"name":"currency1","type":"address","internalType":"Currency"},{"name":"fee","type":"uint24","internalType":"uint24"},{"name":"tickSpacing","type":"int24","internalType":"int24"},{"name":"hooks","type":"address","internalType":"contract IHooks"}]},{"name":"amount0","type":"uint256","internalType":"uint256"},{"name":"amount1","type":"uint256","internalType":"uint256"},{"name":"hookData","type":"bytes","internalType":"bytes"}],"outputs":[{"name":"","type":"bytes4","internalType":"bytes4"}],"stateMutability":"nonpayable"},{"type":"function","name":"afterInitialize","inputs":[{"name":"sender","type":"address","internalType":"address"},{"name":"key","type":"tuple","internalType":"struct PoolKey","components":[{"name":"currency0","type":"address","internalType":"Currency"},{"name":"currency1","type":"address","internalType":"Currency"},{"name":"fee","type":"uint24","internalType":"uint24"},{"name":"tickSpacing","type":"int24","internalType":"int24"},{"name":"hooks","type":"address","internalType":"contract IHooks"}]},{"name":"sqrtPriceX96","type":"uint160","internalType":"uint160"},{"name":"tick","type":"int24","internalType":"int24"}],"outputs":[{"name":"","type":"bytes4","internalType":"bytes4"}],"stateMutability":"nonpayable"},{"type":"function","name":"afterRemoveLiquidity","inputs":[{"name":"sender","type":"address","internalType":"address"},{"name":"key","type":"tuple","internalType":"struct PoolKey","components":[{"name":"currency0","type":"address","internalType":"Currency"},{"name":"currency1","type":"address","internalType":"Currency"},{"name":"fee","type":"uint24","internalType":"uint24"},{"name":"tickSpacing","type":"int24","internalType":"int24"},{"name":"hooks","type":"address","internalType":"contract IHooks"}]},{"name":"params","type":"tuple","internalType":"struct ModifyLiquidityParams","components":[{"name":"tickLower","type":"int24","internalType":"int24"},{"name":"tickUpper","type":"int24","internalType":"int24"},{"name":"liquidityDelta","type":"int256","internalType":"int256"},{"name":"salt","type":"bytes32","internalType":"bytes32"}]},{"name":"delta","type":"int256","internalType":"BalanceDelta"},{"name":"feesAccrued","type":"int256","internalType":"BalanceDelta"},{"name":"hookData","type":"bytes","internalType":"bytes"}],"outputs":[{"name":"","type":"bytes4","internalType":"bytes4"},{"name":"","type":"int256","internalType":"BalanceDelta"}],"stateMutability":"nonpayable"},{"type":"function","name":"afterSwap","inputs":[{"name":"sender","type":"address","internalType":"address"},{"name":"key","type":"tuple","internalType":"struct PoolKey","components":[{"name":"currency0","type":"address","internalType":"Currency"},{"name":"currency1","type":"address","internalType":"Currency"},{"name":"fee","type":"uint24","internalType":"uint24"},{"name":"tickSpacing","type":"int24","internalType":"int24"},{"name":"hooks","type":"address","internalType":"contract IHooks"}]},{"name":"params","type":"tuple","internalType":"struct SwapParams","components":[{"name":"zeroForOne","type":"bool","internalType":"bool"},{"name":"amountSpecified","type":"int256","internalType":"int256"},{"name":"sqrtPriceLimitX96","type":"uint160","internalType":"uint160"}]},{"name":"delta","type":"int256","internalType":"BalanceDelta"},{"name":"hookData","type":"bytes","internalType":"bytes"}],"outputs":[{"name":"","type":"bytes4","internalType":"bytes4"},{"name":"","type":"int128","internalType":"int128"}],"stateMutability":"nonpayable"},{"type":"function","name":"beforeAddLiquidity","inputs":[{"name":"sender","type":"address","internalType":"address"},{"name":"key","type":"tuple","internalType":"struct PoolKey","components":[{"name":"currency0","type":"address","internalType":"Currency"},{"name":"currency1","type":"address","internalType":"Currency"},{"name":"fee","type":"uint24","internalType":"uint24"},{"name":"tickSpacing","type":"int24","internalType":"int24"},{"name":"hooks","type":"address","internalType":"contract IHooks"}]},{"name":"params","type":"tuple","internalType":"struct ModifyLiquidityParams","components":[{"name":"tickLower","type":"int24","internalType":"int24"},{"name":"tickUpper","type":"int24","internalType":"int24"},{"name":"liquidityDelta","type":"int256","internalType":"int256"},{"name":"salt","type":"bytes32","internalType":"bytes32"}]},{"name":"hookData","type":"bytes","internalType":"bytes"}],"outputs":[{"name":"","type":"bytes4","internalType":"bytes4"}],"stateMutability":"nonpayable"},{"type":"function","name":"beforeDonate","inputs":[{"name":"sender","type":"address","internalType":"address"},{"name":"key","type":"tuple","internalType":"struct PoolKey","components":[{"name":"currency0","type":"address","internalType":"Currency"},{"name":"currency1","type":"address","internalType":"Currency"},{"name":"fee","type":"uint24","internalType":"uint24"},{"name":"tickSpacing","type":"int24","internalType":"int24"},{"name":"hooks","type":"address","internalType":"contract IHooks"}]},{"name":"amount0","type":"uint256","internalType":"uint256"},{"name":"amount1","type":"uint256","internalType":"uint256"},{"name":"hookData","type":"bytes","internalType":"bytes"}],"outputs":[{"name":"","type":"bytes4","internalType":"bytes4"}],"stateMutability":"nonpayable"},{"type":"function","name":"beforeInitialize","inputs":[{"name":"sender","type":"address","internalType":"address"},{"name":"key","type":"tuple","internalType":"struct PoolKey","components":[{"name":"currency0","type":"address","internalType":"Currency"},{"name":"currency1","type":"address","internalType":"Currency"},{"name":"fee","type":"uint24","internalType":"uint24"},{"name":"tickSpacing","type":"int24","internalType":"int24"},{"name":"hooks","type":"address","internalType":"contract IHooks"}]},{"name":"sqrtPriceX96","type":"uint160","internalType":"uint160"}],"outputs":[{"name":"","type":"bytes4","internalType":"bytes4"}],"stateMutability":"nonpayable"},{"type":"function","name":"beforeRemoveLiquidity","inputs":[{"name":"sender","type":"address","internalType":"address"},{"name":"key","type":"tuple","internalType":"struct PoolKey","components":[{"name":"currency0","type":"address","internalType":"Currency"},{"name":"currency1","type":"address","internalType":"Currency"},{"name":"fee","type":"uint24","internalType":"uint24"},{"name":"tickSpacing","type":"int24","internalType":"int24"},{"name":"hooks","type":"address","internalType":"contract IHooks"}]},{"name":"params","type":"tuple","internalType":"struct ModifyLiquidityParams","components":[{"name":"tickLower","type":"int24","internalType":"int24"},{"name":"tickUpper","type":"int24","internalType":"int24"},{"name":"liquidityDelta","type":"int256","internalType":"int256"},{"name":"salt","type":"bytes32","internalType":"bytes32"}]},{"name":"hookData","type":"bytes","internalType":"bytes"}],"outputs":[{"name":"","type":"bytes4","internalType":"bytes4"}],"stateMutability":"nonpayable"},{"type":"function","name":"beforeSwap","inputs":[{"name":"sender","type":"address","internalType":"address"},{"name":"key","type":"tuple","internalType":"struct PoolKey","components":[{"name":"currency0","type":"address","internalType":"Currency"},{"name":"currency1","type":"address","internalType":"Currency"},{"name":"fee","type":"uint24","internalType":"uint24"},{"name":"tickSpacing","type":"int24","internalType":"int24"},{"name":"hooks","type":"address","internalType":"contract IHooks"}]},{"name":"params","type":"tuple","internalType":"struct SwapParams","components":[{"name":"zeroForOne","type":"bool","internalType":"bool"},{"name":"amountSpecified","type":"int256","internalType":"int256"},{"name":"sqrtPriceLimitX96","type":"uint160","internalType":"uint160"}]},{"name":"hookData","type":"bytes","internalType":"bytes"}],"outputs":[{"name":"","type":"bytes4","internalType":"bytes4"},{"name":"","type":"int256","internalType":"BeforeSwapDelta"},{"name":"","type":"uint24","internalType":"uint24"}],"stateMutability":"nonpayable"},{"type":"function","name":"claimMilestoneUnlock","inputs":[{"name":"team","type":"address","internalType":"address"},{"name":"milestoneId","type":"uint8","internalType":"uint8"}],"outputs":[],"stateMutability":"nonpayable"},{"type":"function","name":"crashPauseUntil","inputs":[{"name":"","type":"bytes32","internalType":"PoolId"}],"outputs":[{"name":"","type":"uint256","internalType":"uint256"}],"stateMutability":"view"},{"type":"function","name":"cumulativeVolume","inputs":[{"name":"","type":"bytes32","internalType":"PoolId"}],"outputs":[{"name":"","type":"uint256","internalType":"uint256"}],"stateMutability":"view"},{"type":"function","name":"drawdownPauseUntil","inputs":[{"name":"","type":"bytes32","internalType":"PoolId"}],"outputs":[{"name":"","type":"uint256","internalType":"uint256"}],"stateMutability":"view"},{"type":"function","name":"getHookPermissions","inputs":[],"outputs":[{"name":"","type":"tuple","internalType":"struct Hooks.Permissions","components":[{"name":"beforeInitialize","type":"bool","internalType":"bool"},{"name":"afterInitialize","type":"bool","internalType":"bool"},{"name":"beforeAddLiquidity","type":"bool","internalType":"bool"},{"name":"afterAddLiquidity","type":"bool","internalType":"bool"},{"name":"beforeRemoveLiquidity","type":"bool","internalType":"bool"},{"name":"afterRemoveLiquidity","type":"bool","internalType":"bool"},{"name":"beforeSwap","type":"bool","internalType":"bool"},{"name":"afterSwap","type":"bool","internalType":"bool"},{"name":"beforeDonate","type":"bool","internalType":"bool"},{"name":"afterDonate","type":"bool","internalType":"bool"},{"name":"beforeSwapReturnDelta","type":"bool","internalType":"bool"},{"name":"afterSwapReturnDelta","type":"bool","internalType":"bool"},{"name":"afterAddLiquidityReturnDelta","type":"bool","internalType":"bool"},{"name":"afterRemoveLiquidityReturnDelta","type":"bool","internalType":"bool"}]}],"stateMutability":"pure"},{"type":"function","name":"getLockedAmount","inputs":[{"name":"team","type":"address","internalType":"address"},{"name":"poolId","type":"bytes32","internalType":"PoolId"}],"outputs":[{"name":"","type":"uint256","internalType":"uint256"}],"stateMutability":"view"},{"type":"function","name":"getMilestone","inputs":[{"name":"team","type":"address","internalType":"address"},{"name":"milestoneId","type":"uint8","internalType":"uint8"}],"outputs":[{"name":"","type":"tuple","internalType":"struct Milestone","components":[{"name":"conditionType","type":"uint8","internalType":"enum ConditionType"},{"name":"threshold","type":"uint256","internalType":"uint256"},{"name":"unlockPct","type":"uint8","internalType":"uint8"},{"name":"complete","type":"bool","internalType":"bool"}]}],"stateMutability":"view"},{"type":"function","name":"hasSwapped","inputs":[{"name":"","type":"bytes32","internalType":"PoolId"},{"name":"","type":"address","internalType":"address"}],"outputs":[{"name":"","type":"bool","internalType":"bool"}],"stateMutability":"view"},{"type":"function","name":"lastPrice","inputs":[{"name":"","type":"bytes32","internalType":"PoolId"}],"outputs":[{"name":"","type":"uint256","internalType":"uint256"}],"stateMutability":"view"},{"type":"function","name":"lastTvl","inputs":[{"name":"","type":"bytes32","internalType":"PoolId"}],"outputs":[{"name":"","type":"uint256","internalType":"uint256"}],"stateMutability":"view"},{"type":"function","name":"peakTvl","inputs":[{"name":"","type":"bytes32","internalType":"PoolId"}],"outputs":[{"name":"","type":"uint256","internalType":"uint256"}],"stateMutability":"view"},{"type":"function","name":"poolManager","inputs":[],"outputs":[{"name":"","type":"address","internalType":"contract IPoolManager"}],"stateMutability":"view"},{"type":"function","name":"poolToTeam","inputs":[{"name":"","type":"bytes32","internalType":"PoolId"}],"outputs":[{"name":"","type":"address","internalType":"address"}],"stateMutability":"view"},{"type":"function","name":"positions","inputs":[{"name":"","type":"address","internalType":"address"}],"outputs":[{"name":"team","type":"address","internalType":"address"},{"name":"tokenAddr","type":"address","internalType":"address"},{"name":"lpAmount","type":"uint256","internalType":"uint256"},{"name":"registeredAt","type":"uint256","internalType":"uint256"}],"stateMutability":"view"},{"type":"function","name":"registerVestingPosition","inputs":[{"name":"milestones","type":"tuple[3]","internalType":"struct Milestone[3]","components":[{"name":"conditionType","type":"uint8","internalType":"enum ConditionType"},{"name":"threshold","type":"uint256","internalType":"uint256"},{"name":"unlockPct","type":"uint8","internalType":"uint8"},{"name":"complete","type":"bool","internalType":"bool"}]},{"name":"tokenAddr","type":"address","internalType":"address"},{"name":"poolId","type":"bytes32","internalType":"PoolId"}],"outputs":[],"stateMutability":"nonpayable"},{"type":"function","name":"teamToPool","inputs":[{"name":"","type":"address","internalType":"address"}],"outputs":[{"name":"","type":"bytes32","internalType":"PoolId"}],"stateMutability":"view"},{"type":"function","name":"uniqueSwapperCount","inputs":[{"name":"","type":"bytes32","internalType":"PoolId"}],"outputs":[{"name":"","type":"uint256","internalType":"uint256"}],"stateMutability":"view"},{"type":"function","name":"unlockedPctByTeam","inputs":[{"name":"","type":"address","internalType":"address"}],"outputs":[{"name":"","type":"uint8","internalType":"uint8"}],"stateMutability":"view"},{"type":"function","name":"withdrawn","inputs":[{"name":"","type":"address","internalType":"address"}],"outputs":[{"name":"","type":"uint256","internalType":"uint256"}],"stateMutability":"view"},{"type":"event","name":"CrashBrakeTriggered","inputs":[{"name":"poolId","type":"bytes32","indexed":true,"internalType":"PoolId"},{"name":"dropPct","type":"uint256","indexed":false,"internalType":"uint256"},{"name":"until","type":"uint256","indexed":false,"internalType":"uint256"}],"anonymous":false},{"type":"event","name":"DrawdownBrakeTriggered","inputs":[{"name":"poolId","type":"bytes32","indexed":true,"internalType":"PoolId"},{"name":"drawdownPct","type":"uint256","indexed":false,"internalType":"uint256"},{"name":"until","type":"uint256","indexed":false,"internalType":"uint256"}],"anonymous":false},{"type":"event","name":"MilestoneUnlocked","inputs":[{"name":"team","type":"address","indexed":true,"internalType":"address"},{"name":"milestoneId","type":"uint8","indexed":true,"internalType":"uint8"},{"name":"newUnlockedPct","type":"uint8","indexed":false,"internalType":"uint8"}],"anonymous":false},{"type":"event","name":"PoolMetricsUpdated","inputs":[{"name":"poolId","type":"bytes32","indexed":true,"internalType":"PoolId"},{"name":"tvl","type":"uint256","indexed":false,"internalType":"uint256"},{"name":"cumulativeVol","type":"uint256","indexed":false,"internalType":"uint256"},{"name":"uniqueUsers","type":"uint256","indexed":false,"internalType":"uint256"}],"anonymous":false},{"type":"event","name":"PositionLocked","inputs":[{"name":"team","type":"address","indexed":true,"internalType":"address"},{"name":"poolId","type":"bytes32","indexed":true,"internalType":"PoolId"},{"name":"amount","type":"uint256","indexed":false,"internalType":"uint256"}],"anonymous":false},{"type":"event","name":"PositionRegistered","inputs":[{"name":"team","type":"address","indexed":true,"internalType":"address"},{"name":"tokenAddr","type":"address","indexed":true,"internalType":"address"},{"name":"poolId","type":"bytes32","indexed":true,"internalType":"PoolId"}],"anonymous":false},{"type":"error","name":"AlreadyRegistered","inputs":[]},{"type":"error","name":"CrashBrakeActive","inputs":[{"name":"until","type":"uint256","internalType":"uint256"}]},{"type":"error","name":"DrawdownBrakeActive","inputs":[{"name":"until","type":"uint256","internalType":"uint256"}]},{"type":"error","name":"ExceedsUnlockedAmount","inputs":[{"name":"requested","type":"uint256","internalType":"uint256"},{"name":"remaining","type":"uint256","internalType":"uint256"}]},{"type":"error","name":"HookNotImplemented","inputs":[]},{"type":"error","name":"InvalidMilestoneId","inputs":[]},{"type":"error","name":"MilestoneAlreadyComplete","inputs":[]},{"type":"error","name":"MilestoneThresholdNotMet","inputs":[{"name":"current","type":"uint256","internalType":"uint256"},{"name":"threshold","type":"uint256","internalType":"uint256"}]},{"type":"error","name":"NotPoolManager","inputs":[]},{"type":"error","name":"NotRegistered","inputs":[]},{"type":"error","name":"PoolAlreadyClaimed","inputs":[{"name":"poolId","type":"bytes32","internalType":"PoolId"}]},{"type":"error","name":"TeamPoolMismatch","inputs":[]},{"type":"error","name":"UnlockPctSumNot100","inputs":[]}],"bytecode":{"object":"0x60c060405234801561000f575f80fd5b506040516128e93803806128e983398101604081905261002e916102c5565b6001600160a01b03821660805281610044610057565b506001600160a01b031660a052506102fd565b61014730610142604080516101c0810182525f80825260208201819052918101829052606081018290526080810182905260a0810182905260c0810182905260e08101829052610100810182905261012081018290526101408101829052610160810182905261018081018290526101a081019190915250604080516101c0810182525f808252602082018190529181018290526001606082018190526080820181905260a0820183905260c0820183905260e0820152610100810182905261012081018290526101408101829052610160810182905261018081018290526101a081019190915290565b610149565b565b805115156120008316151514158061016d5750602081015115156110008316151514155b806101845750604081015115156108008316151514155b8061019b5750606081015115156104008316151514155b806101b25750608081015115156102008316151514155b806101c9575060a081015115156101008316151514155b806101df575060c0810151151560808316151514155b806101f5575060e0810151151560408316151514155b8061020c5750610100810151151560208316151514155b806102235750610120810151151560108316151514155b8061023a5750610140810151151560088316151514155b806102515750610160810151151560048316151514155b806102685750610180810151151560028316151514155b8061027f57506101a0810151151560018316151514155b1561029557610295630732d7b560e51b83610299565b5050565b815f526001600160a01b03811660045260245ffd5b6001600160a01b03811681146102c2575f80fd5b50565b5f80604083850312156102d6575f80fd5b82516102e1816102ae565b60208401519092506102f2816102ae565b809150509250929050565b60805160a0516125706103795f395f81816105f5015261162701525f8181610631015281816107b30152818161083f01528181610c1901528181610cab01528181610d3e01528181610dbe015281816110050152818161109501528181611206015281816112890152818161189f01526118d101526125705ff3fe608060405234801561000f575f80fd5b506004361061021b575f3560e01c80636fe7e6eb11610123578063b47b2fb1116100b8578063c4e833ce11610088578063dc98354e1161006e578063dc98354e14610653578063e1b4af6914610666578063f116754714610679575f80fd5b8063c4e833ce14610617578063dc4c90d31461062c575f80fd5b8063b47b2fb11461059f578063b6a8b0fa146105d5578063b9ef1992146105e8578063bc22ff4e146105f0575f80fd5b80638ad1a2df116100f35780638ad1a2df1461051d5780639f063efc1461055a578063a4fab7171461056d578063a8a0b9e314610580575f80fd5b80636fe7e6eb146104ad5780637103c3e9146104c057806388038f71146104df57806389f84c13146104fe575f80fd5b80633ac929d7116101b357806355f57510116101835780636c2bbe7e116101695780636c2bbe7e1461043c5780636ef610921461046f5780636f4265c51461048e575f80fd5b806355f5751014610392578063575e24b4146103fe575f80fd5b80633ac929d7146103435780633c4a44b21461034b5780634b92ff72146103545780634c166d7214610373575f80fd5b806321d0ee70116101ee57806321d0ee70146102bb578063259982e5146102e75780632d332295146102fa57806332f7488c1461032e575f80fd5b8063088f72ff1461021f5780630915d27c1461025157806319c1d693146102715780631f5561c0146102b1575b5f80fd5b61023e61022d366004611d39565b600c6020525f908152604090205481565b6040519081526020015b60405180910390f35b61026461025f366004611d87565b61068c565b6040516102489190611dce565b61029961027f366004611d39565b60016020525f90815260409020546001600160a01b031681565b6040516001600160a01b039091168152602001610248565b61023e6201518081565b6102ce6102c9366004611e89565b6107a7565b6040516001600160e01b03199091168152602001610248565b6102ce6102f5366004611e89565b610833565b61031c610308366004611f00565b60036020525f908152604090205460ff1681565b60405160ff9091168152602001610248565b61034161033c366004611f22565b6108b3565b005b61023e601e81565b61023e610e1081565b61023e610362366004611d39565b60086020525f908152604090205481565b61023e610381366004611d39565b600a6020525f908152604090205481565b6103d36103a0366004611f00565b5f60208190529081526040902080546001820154600b830154600c909301546001600160a01b0392831693919092169184565b604080516001600160a01b039586168152949093166020850152918301526060820152608001610248565b61041161040c366004611f75565b610c0b565b604080516001600160e01b03199094168452602084019290925262ffffff1690820152606001610248565b61044f61044a366004611fcf565b610c9e565b604080516001600160e01b03199093168352602083019190915201610248565b61023e61047d366004611f00565b60046020525f908152604090205481565b61023e61049c366004611d39565b600b6020525f908152604090205481565b6102ce6104bb36600461206b565b610d32565b61023e6104ce366004611d39565b60066020525f908152604090205481565b61023e6104ed366004611d39565b60056020525f908152604090205481565b61023e61050c366004611f00565b60026020525f908152604090205481565b61054a61052b3660046120c2565b600760209081525f928352604080842090915290825290205460ff1681565b6040519015158152602001610248565b61044f610568366004611fcf565b610db1565b61034161057b366004611d87565b610e34565b61023e61058e366004611d39565b60096020525f908152604090205481565b6105b26105ad3660046120f0565b610ff8565b604080516001600160e01b03199093168352600f9190910b602083015201610248565b6102ce6105e3366004612171565b611089565b61023e603281565b6102997f000000000000000000000000000000000000000000000000000000000000000081565b61061f611116565b60405161024891906121cb565b6102997f000000000000000000000000000000000000000000000000000000000000000081565b6102ce6106613660046122ec565b6111fa565b6102ce610674366004612171565b61127d565b61023e610687366004612333565b6112f1565b604080516080810182525f80825260208201819052918101829052606081019190915260038260ff16106107075760405162461bcd60e51b815260206004820152600660248201527f626164206964000000000000000000000000000000000000000000000000000060448201526064015b60405180910390fd5b6001600160a01b0383165f90815260208190526040902060020160ff8316600381106107355761073561235d565b6040805160808101909152600391909102919091018054829060ff16600281111561076257610762611dba565b600281111561077357610773611dba565b81526001820154602082015260029091015460ff808216604084015261010090910416151560609091015290505b92915050565b5f336001600160a01b037f000000000000000000000000000000000000000000000000000000000000000016146107f15760405163570c108560e11b815260040160405180910390fd5b6107f9611116565b6080015161081a57604051630a85dc2960e01b815260040160405180910390fd5b6108278686868686611337565b90505b95945050505050565b5f336001600160a01b037f0000000000000000000000000000000000000000000000000000000000000000161461087d5760405163570c108560e11b815260040160405180910390fd5b610885611116565b604001516108a657604051630a85dc2960e01b815260040160405180910390fd5b6108278686868686611513565b335f908152602081905260409020546001600160a01b0316156108e957604051630ea075bf60e21b815260040160405180910390fd5b5f818152600160205260409020546001600160a01b03161561092157604051636530beef60e01b8152600481018290526024016106fe565b5f805b60038110156109eb5784816003811061093f5761093f61235d565b6080020160400160208101906109559190612371565b60ff16158061098e575060648582600381106109735761097361235d565b6080020160400160208101906109899190612371565b60ff16115b156109ac576040516329df848760e01b815260040160405180910390fd5b8481600381106109be576109be61235d565b6080020160400160208101906109d49190612371565b6109e19060ff168361239e565b9150600101610924565b5080606414610a0d576040516329df848760e01b815260040160405180910390fd5b335f818152602081905260408120805473ffffffffffffffffffffffffffffffffffffffff1990811690931781556001810180549093166001600160a01b0387161790925542600c8301555b6003811015610b9257858160038110610a7457610a7461235d565b608002015f016020810190610a8991906123b1565b826002018260038110610a9e57610a9e61235d565b60030201805460ff19166001836002811115610abc57610abc611dba565b0217905550858160038110610ad357610ad361235d565b6080020160200135826002018260038110610af057610af061235d565b6003020160010181905550858160038110610b0d57610b0d61235d565b608002016040016020810190610b239190612371565b826002018260038110610b3857610b3861235d565b600302016002015f6101000a81548160ff021916908360ff1602179055505f826002018260038110610b6c57610b6c61235d565b60030201600201805461ff00191661010092151592909202919091179055600101610a59565b505f838152600160209081526040808320805473ffffffffffffffffffffffffffffffffffffffff19163390811790915580845260029092528083208690555185926001600160a01b03881692917fa9607daa15b38519ee13f233d15e0ce03053729aa1f43ef57d862b7ea6a6967a9190a45050505050565b5f8080336001600160a01b037f00000000000000000000000000000000000000000000000000000000000000001614610c575760405163570c108560e11b815260040160405180910390fd5b610c5f611116565b60c00151610c8057604051630a85dc2960e01b815260040160405180910390fd5b610c8d888888888861152d565b925092509250955095509592505050565b5f80336001600160a01b037f00000000000000000000000000000000000000000000000000000000000000001614610ce95760405163570c108560e11b815260040160405180910390fd5b610cf1611116565b60a00151610d1257604051630a85dc2960e01b815260040160405180910390fd5b610d2189898989898989611549565b915091505b97509795505050505050565b5f336001600160a01b037f00000000000000000000000000000000000000000000000000000000000000001614610d7c5760405163570c108560e11b815260040160405180910390fd5b610d84611116565b60200151610da557604051630a85dc2960e01b815260040160405180910390fd5b61082a85858585611513565b5f80336001600160a01b037f00000000000000000000000000000000000000000000000000000000000000001614610dfc5760405163570c108560e11b815260040160405180910390fd5b610e04611116565b60600151610e2557604051630a85dc2960e01b815260040160405180910390fd5b610d2189898989898989611564565b60038160ff1610610e5857604051633c26846160e21b815260040160405180910390fd5b6001600160a01b038083165f9081526020819052604090208054909116610e925760405163aba4733960e01b815260040160405180910390fd5b5f816002018360ff1660038110610eab57610eab61235d565b6003020190508060020160019054906101000a900460ff1615610ee15760405163798f5ebd60e01b815260040160405180910390fd5b6001600160a01b0384165f908152600260205260408120548254909190610f0c90839060ff16611707565b90508260010154811015610f43576001830154604051635d55ee9160e11b81526106fe918391600401918252602082015260400190565b60028301805461ff00198116610100179091556001600160a01b0387165f908152600360205260408120549091610f809160ff918216911661239e565b90506064811115610f8f575060645b6001600160a01b0387165f81815260036020908152604091829020805460ff191660ff8681169182179092559251928352891692917f5c1a25770161de117af080f380535d0e9da6abbce6686fdb35fe6a17c6d9cbea910160405180910390a350505050505050565b5f80336001600160a01b037f000000000000000000000000000000000000000000000000000000000000000016146110435760405163570c108560e11b815260040160405180910390fd5b61104b611116565b60e0015161106c57604051630a85dc2960e01b815260040160405180910390fd5b61107a888888888888611774565b91509150965096945050505050565b5f336001600160a01b037f000000000000000000000000000000000000000000000000000000000000000016146110d35760405163570c108560e11b815260040160405180910390fd5b6110db611116565b61010001516110fd57604051630a85dc2960e01b815260040160405180910390fd5b61110b878787878787611513565b979650505050505050565b604080516101c0810182525f80825260208201819052918101829052606081018290526080810182905260a0810182905260c0810182905260e08101829052610100810182905261012081018290526101408101829052610160810182905261018081018290526101a081019190915250604080516101c0810182525f808252602082018190529181018290526001606082018190526080820181905260a0820183905260c0820183905260e0820152610100810182905261012081018290526101408101829052610160810182905261018081018290526101a081019190915290565b5f336001600160a01b037f000000000000000000000000000000000000000000000000000000000000000016146112445760405163570c108560e11b815260040160405180910390fd5b61124c611116565b5161126a57604051630a85dc2960e01b815260040160405180910390fd5b611275848484611513565b949350505050565b5f336001600160a01b037f000000000000000000000000000000000000000000000000000000000000000016146112c75760405163570c108560e11b815260040160405180910390fd5b6112cf611116565b61012001516110fd57604051630a85dc2960e01b815260040160405180910390fd5b5f818152600160205260408120546001600160a01b0384811691161461131857505f6107a1565b50506001600160a01b03165f908152602081905260409020600b015490565b5f8061135261134b368890038801886123e1565b60a0902090565b5f818152600160205260409020549091506001600160a01b031680158061139057506001600160a01b038181165f9081526020819052604090205416155b156113a7575063021d0ee760e41b915061082a9050565b5f828152600b6020526040902054428111156113d95760405163283e63bb60e21b8152600481018290526024016106fe565b5f838152600c60205260409020544281111561140b5760405163c62e796560e01b8152600481018290526024016106fe565b6001600160a01b0383165f90815260208181526040808320600b015460039092528220549091906064906114429060ff168461247b565b61144c9190612492565b6001600160a01b0386165f908152600460205260408120549192508282101561147e5761147982846124b1565b611480565b5f5b90505f808d6040013512611498578c604001356114a5565b6114a560408e01356124c4565b9050818111156114d25760405163a3a6fee160e01b815260048101829052602481018390526044016106fe565b6114dc818461239e565b6001600160a01b039098165f908152600460205260409020979097555063021d0ee760e41b97505050505050505095945050505050565b5f604051630a85dc2960e01b815260040160405180910390fd5b5f805f604051630a85dc2960e01b815260040160405180910390fd5b5f80604051630a85dc2960e01b815260040160405180910390fd5b5f808061157961134b368b90038b018b6123e1565b5f818152600160205260409020549091506001600160a01b03168015806115b757506001600160a01b038181165f9081526020819052604090205416155b156115d157506327c18fbf60e21b92505f9150610d269050565b5f6115db8a611b69565b9050805f036115fa57506327c18fbf60e21b93505f9250610d26915050565b6040516311370d9360e11b81526001600160a01b03838116600483015260248201859052604482018390527f0000000000000000000000000000000000000000000000000000000000000000169063226e1b26906064015f604051808303815f87803b158015611668575f80fd5b505af115801561167a573d5f803e3d5ffd5b505050506001600160a01b0382165f908152602081905260408120600b0180548392906116a890849061239e565b909155505060405181815283906001600160a01b038416907f9fcca7d4a4fe21922427fa68ae954a11518460e4298a953677db412ad22d6f399060200160405180910390a3506327c18fbf60e21b9b5f9b509950505050505050505050565b5f8082600281111561171b5761171b611dba565b0361173457505f828152600a60205260409020546107a1565b600182600281111561174857611748611dba565b0361176157505f828152600560205260409020546107a1565b50505f9081526006602052604090205490565b5f808061178961134b368a90038a018a6123e1565b90508860208590036117b9576117a185870187611f00565b90506001600160a01b0381166117b45750325b6117cc565b6001600160a01b038a1632146117cc5750325b5f6117df6117da89600f0b90565b611b84565b6117ec6117da8a60801d90565b6117f6919061239e565b90508060055f8581526020019081526020015f205f828254611818919061239e565b90915550505f8381526007602090815260408083206001600160a01b038616845290915290205460ff16611891575f83815260066020526040812080549161185f836124de565b90915550505f8381526007602090815260408083206001600160a01b03861684529091529020805460ff191660011790555b5f6118c56001600160a01b037f00000000000000000000000000000000000000000000000000000000000000001685611bc8565b50505090505f611907857f00000000000000000000000000000000000000000000000000000000000000006001600160a01b0316611c7a90919063ffffffff16565b90505f60606119316001600160a01b0385166fffffffffffffffffffffffffffffffff851661247b565b5f888152600a602090815260408083209390941c9283905560099052919091205490915081111561196d575f8681526009602052604090208190555b5f60c06119836001600160a01b0386168061247b565b5f89815260086020526040902054911c915080158015906119a357508082105b15611a33575f816119b484826124b1565b6119bf90606461247b565b6119c99190612492565b9050601e8110611a31575f6119e0610e104261239e565b5f8b8152600b602090815260409182902083905581518581529081018390529192508b917fa7b652f2c27558e1d7bf4c0596eaf43e062ad02d575a5a495b645cb59b1b9933910160405180910390a2505b505b5f88815260086020908152604080832085905560099091529020548015801590611a5c57508084105b15611aed575f81611a6d86826124b1565b611a7890606461247b565b611a829190612492565b905060328110611aeb575f611a9a620151804261239e565b5f8c8152600c602090815260409182902083905581518581529081018390529192508c917f849711289555a587878d9bbd73eadc2b70ad1ba07168529aae1143a8b18b888e910160405180910390a2505b505b5f8981526005602090815260408083205460068352928190205481518881529283019390935281019190915289907fc99190d562dc877bc95c39720ac66dc5d4f9c2ef3a3410251a579493b8409cd09060600160405180910390a25063b47b2fb160e01b99505f98505050505050505050965096945050505050565b5f80826040013513611b7c57505f919050565b506040013590565b5f8082600f0b12611ba757816fffffffffffffffffffffffffffffffff166107a1565b611bb0826124f6565b6fffffffffffffffffffffffffffffffff1692915050565b5f805f805f611bd686611cfd565b604051631e2eaeaf60e01b8152600481018290529091505f906001600160a01b03891690631e2eaeaf90602401602060405180830381865afa158015611c1e573d5f803e3d5ffd5b505050506040513d601f19601f82011682018060405250810190611c429190612523565b90506001600160a01b03811695508060a01c60020b945062ffffff8160b81c16935062ffffff8160d01c169250505092959194509250565b5f80611c8583611cfd565b90505f611c9360038361239e565b604051631e2eaeaf60e01b8152600481018290529091506001600160a01b03861690631e2eaeaf90602401602060405180830381865afa158015611cd9573d5f803e3d5ffd5b505050506040513d601f19601f8201168201806040525081019061082a9190612523565b6040515f90611d1c908390600690602001918252602082015260400190565b604051602081830303815290604052805190602001209050919050565b5f60208284031215611d49575f80fd5b5035919050565b6001600160a01b0381168114611d64575f80fd5b50565b8035611d7281611d50565b919050565b803560ff81168114611d72575f80fd5b5f8060408385031215611d98575f80fd5b8235611da381611d50565b9150611db160208401611d77565b90509250929050565b634e487b7160e01b5f52602160045260245ffd5b8151608082019060038110611df157634e487b7160e01b5f52602160045260245ffd5b808352506020830151602083015260ff604084015116604083015260608301511515606083015292915050565b5f60a08284031215611e2e575f80fd5b50919050565b5f60808284031215611e2e575f80fd5b5f8083601f840112611e54575f80fd5b50813567ffffffffffffffff811115611e6b575f80fd5b602083019150836020828501011115611e82575f80fd5b9250929050565b5f805f805f6101608688031215611e9e575f80fd5b8535611ea981611d50565b9450611eb88760208801611e1e565b9350611ec78760c08801611e34565b925061014086013567ffffffffffffffff811115611ee3575f80fd5b611eef88828901611e44565b969995985093965092949392505050565b5f60208284031215611f10575f80fd5b8135611f1b81611d50565b9392505050565b5f805f6101c08486031215611f35575f80fd5b610180840185811115611f46575f80fd5b84935035611f5381611d50565b929592945050506101a0919091013590565b5f60608284031215611e2e575f80fd5b5f805f805f6101408688031215611f8a575f80fd5b8535611f9581611d50565b9450611fa48760208801611e1e565b9350611fb38760c08801611f65565b925061012086013567ffffffffffffffff811115611ee3575f80fd5b5f805f805f805f6101a0888a031215611fe6575f80fd5b8735611ff181611d50565b96506120008960208a01611e1e565b955061200f8960c08a01611e34565b94506101408801359350610160880135925061018088013567ffffffffffffffff81111561203b575f80fd5b6120478a828b01611e44565b989b979a50959850939692959293505050565b8035600281900b8114611d72575f80fd5b5f805f80610100858703121561207f575f80fd5b843561208a81611d50565b93506120998660208701611e1e565b925060c08501356120a981611d50565b91506120b760e0860161205a565b905092959194509250565b5f80604083850312156120d3575f80fd5b8235915060208301356120e581611d50565b809150509250929050565b5f805f805f806101608789031215612106575f80fd5b863561211181611d50565b95506121208860208901611e1e565b945061212f8860c08901611f65565b9350610120870135925061014087013567ffffffffffffffff811115612153575f80fd5b61215f89828a01611e44565b979a9699509497509295939492505050565b5f805f805f806101208789031215612187575f80fd5b863561219281611d50565b95506121a18860208901611e1e565b945060c0870135935060e0870135925061010087013567ffffffffffffffff811115612153575f80fd5b8151151581526101c0810160208301516121e9602084018215159052565b5060408301516121fd604084018215159052565b506060830151612211606084018215159052565b506080830151612225608084018215159052565b5060a083015161223960a084018215159052565b5060c083015161224d60c084018215159052565b5060e083015161226160e084018215159052565b5061010083015161227761010084018215159052565b5061012083015161228d61012084018215159052565b506101408301516122a361014084018215159052565b506101608301516122b961016084018215159052565b506101808301516122cf61018084018215159052565b506101a08301516122e56101a084018215159052565b5092915050565b5f805f60e084860312156122fe575f80fd5b833561230981611d50565b92506123188560208601611e1e565b915060c084013561232881611d50565b809150509250925092565b5f8060408385031215612344575f80fd5b823561234f81611d50565b946020939093013593505050565b634e487b7160e01b5f52603260045260245ffd5b5f60208284031215612381575f80fd5b611f1b82611d77565b634e487b7160e01b5f52601160045260245ffd5b808201808211156107a1576107a161238a565b5f602082840312156123c1575f80fd5b813560038110611f1b575f80fd5b803562ffffff81168114611d72575f80fd5b5f60a08284031280156123f2575f80fd5b5060405160a0810167ffffffffffffffff8111828210171561242257634e487b7160e01b5f52604160045260245ffd5b60405261242e83611d67565b815261243c60208401611d67565b602082015261244d604084016123cf565b604082015261245e6060840161205a565b606082015261246f60808401611d67565b60808201529392505050565b80820281158282048414176107a1576107a161238a565b5f826124ac57634e487b7160e01b5f52601260045260245ffd5b500490565b818103818111156107a1576107a161238a565b5f600160ff1b82016124d8576124d861238a565b505f0390565b5f600182016124ef576124ef61238a565b5060010190565b5f81600f0b6f7fffffffffffffffffffffffffffffff19810361251b5761251b61238a565b5f0392915050565b5f60208284031215612533575f80fd5b505191905056fea264697066735822122002f4a5a876af000418b9fda1ff7286f015f2cddd3bf0733cbf5ac57cf52a32ad64736f6c634300081a0033","linkReferences":{}},"methodIdentifiers":{"CRASH_BRAKE_DROP_PCT()":"3ac929d7","CRASH_BRAKE_DURATION()":"3c4a44b2","DRAWDOWN_BRAKE_DURATION()":"1f5561c0","DRAWDOWN_BRAKE_PCT()":"b9ef1992","VAULT_MANAGER()":"bc22ff4e","afterAddLiquidity(address,(address,address,uint24,int24,address),(int24,int24,int256,bytes32),int256,int256,bytes)":"9f063efc","afterDonate(address,(address,address,uint24,int24,address),uint256,uint256,bytes)":"e1b4af69","afterInitialize(address,(address,address,uint24,int24,address),uint160,int24)":"6fe7e6eb","afterRemoveLiquidity(address,(address,address,uint24,int24,address),(int24,int24,int256,bytes32),int256,int256,bytes)":"6c2bbe7e","afterSwap(address,(address,address,uint24,int24,address),(bool,int256,uint160),int256,bytes)":"b47b2fb1","beforeAddLiquidity(address,(address,address,uint24,int24,address),(int24,int24,int256,bytes32),bytes)":"259982e5","beforeDonate(address,(address,address,uint24,int24,address),uint256,uint256,bytes)":"b6a8b0fa","beforeInitialize(address,(address,address,uint24,int24,address),uint160)":"dc98354e","beforeRemoveLiquidity(address,(address,address,uint24,int24,address),(int24,int24,int256,bytes32),bytes)":"21d0ee70","beforeSwap(address,(address,address,uint24,int24,address),(bool,int256,uint160),bytes)":"575e24b4","claimMilestoneUnlock(address,uint8)":"a4fab717","crashPauseUntil(bytes32)":"6f4265c5","cumulativeVolume(bytes32)":"88038f71","drawdownPauseUntil(bytes32)":"088f72ff","getHookPermissions()":"c4e833ce","getLockedAmount(address,bytes32)":"f1167547","getMilestone(address,uint8)":"0915d27c","hasSwapped(bytes32,address)":"8ad1a2df","lastPrice(bytes32)":"4b92ff72","lastTvl(bytes32)":"4c166d72","peakTvl(bytes32)":"a8a0b9e3","poolManager()":"dc4c90d3","poolToTeam(bytes32)":"19c1d693","positions(address)":"55f57510","registerVestingPosition((uint8,uint256,uint8,bool)[3],address,bytes32)":"32f7488c","teamToPool(address)":"89f84c13","uniqueSwapperCount(bytes32)":"7103c3e9","unlockedPctByTeam(address)":"2d332295","withdrawn(address)":"6ef61092"},"id":84}