{"abi":[{"type":"function","name":"depositPosition","inputs":[{"name":"team","type":"address","internalType":"address"},{"name":"poolId","type":"bytes32","internalType":"PoolId"},{"name":"amount","type":"uint256","internalType":"uint256"}],"outputs":[],"stateMutability":"nonpayable"},{"type":"function","name":"getLockedAmount","inputs":[{"name":"team","type":"address","internalType":"address"},{"name":"poolId","type":"bytes32","internalType":"PoolId"}],"outputs":[{"name":"","type":"uint256","internalType":"uint256"}],"stateMutability":"view"},{"type":"function","name":"hook","inputs":[],"outputs":[{"name":"","type":"address","internalType":"address"}],"stateMutability":"view"},{"type":"function","name":"locked","inputs":[{"name":"","type":"address","internalType":"address"},{"name":"","type":"bytes32","internalType":"PoolId"}],"outputs":[{"name":"","type":"uint256","internalType":"uint256"}],"stateMutability":"view"},{"type":"function","name":"releasePosition","inputs":[{"name":"team","type":"address","internalType":"address"},{"name":"poolId","type":"bytes32","internalType":"PoolId"},{"name":"amount","type":"uint256","internalType":"uint256"},{"name":"to","type":"address","internalType":"address"}],"outputs":[],"stateMutability":"nonpayable"},{"type":"function","name":"setHook","inputs":[{"name":"_hook","type":"address","internalType":"address"}],"outputs":[],"stateMutability":"nonpayable"},{"type":"event","name":"DepositPosition","inputs":[{"name":"team","type":"address","indexed":true,"internalType":"address"},{"name":"poolId","type":"bytes32","indexed":true,"internalType":"PoolId"},{"name":"amount","type":"uint256","indexed":false,"internalType":"uint256"}],"anonymous":false},{"type":"event","name":"HookSet","inputs":[{"name":"hook","type":"address","indexed":false,"internalType":"address"}],"anonymous":false},{"type":"event","name":"ReleasePosition","inputs":[{"name":"team","type":"address","indexed":true,"internalType":"address"},{"name":"poolId","type":"bytes32","indexed":true,"internalType":"PoolId"},{"name":"amount","type":"uint256","indexed":false,"internalType":"uint256"},{"name":"to","type":"address","indexed":false,"internalType":"address"}],"anonymous":false},{"type":"error","name":"HookAlreadySet","inputs":[]},{"type":"error","name":"InsufficientLockedAmount","inputs":[]},{"type":"error","name":"OnlyHook","inputs":[]}],"bytecode":{"object":"0x6080604052348015600e575f80fd5b506104f28061001c5f395ff3fe608060405234801561000f575f80fd5b506004361061006f575f3560e01c80637f5a7c7b1161004d5780637f5a7c7b146100ae578063d71be8db146100dd578063f116754714610115575f80fd5b8063016ca80614610073578063226e1b26146100885780633dfd38731461009b575b5f80fd5b6100866100813660046103c7565b610128565b005b61008661009636600461040a565b610231565b6100866100a936600461043a565b6102ee565b5f546100c0906001600160a01b031681565b6040516001600160a01b0390911681526020015b60405180910390f35b6101076100eb36600461045a565b600160209081525f928352604080842090915290825290205481565b6040519081526020016100d4565b61010761012336600461045a565b610382565b5f546001600160a01b03161580159061014b57505f546001600160a01b03163314155b1561016957604051635a91834f60e01b815260040160405180910390fd5b6001600160a01b0384165f9081526001602090815260408083208684529091529020548211156101ac57604051630c06c8ff60e01b815260040160405180910390fd5b6001600160a01b0384165f908152600160209081526040808320868452909152812080548492906101de908490610496565b9091555050604080518381526001600160a01b0383811660208301528592908716917f533254df4c45a5249e2c50a60704d7d64d13373c1aaddc6d9b133c5fa3048f85910160405180910390a350505050565b5f546001600160a01b03161580159061025457505f546001600160a01b03163314155b1561027257604051635a91834f60e01b815260040160405180910390fd5b6001600160a01b0383165f908152600160209081526040808320858452909152812080548392906102a49084906104a9565b909155505060405181815282906001600160a01b038516907fa56e19c5f806ae66a3b7d8c0b92d13ddf628502c9b47f577580f5f6a4e1deb2a9060200160405180910390a3505050565b5f546001600160a01b03161561031757604051635f7c8ab560e11b815260040160405180910390fd5b5f80547fffffffffffffffffffffffff0000000000000000000000000000000000000000166001600160a01b0383169081179091556040519081527f4eab7b127c764308788622363ad3e9532de3dfba7845bd4f84c125a22544255a9060200160405180910390a150565b6001600160a01b0382165f9081526001602090815260408083208484529091529020545b92915050565b80356001600160a01b03811681146103c2575f80fd5b919050565b5f805f80608085870312156103da575f80fd5b6103e3856103ac565b935060208501359250604085013591506103ff606086016103ac565b905092959194509250565b5f805f6060848603121561041c575f80fd5b610425846103ac565b95602085013595506040909401359392505050565b5f6020828403121561044a575f80fd5b610453826103ac565b9392505050565b5f806040838503121561046b575f80fd5b610474836103ac565b946020939093013593505050565b634e487b7160e01b5f52601160045260245ffd5b818103818111156103a6576103a6610482565b808201808211156103a6576103a661048256fea26469706673582212207b335fa7542f9ac0f7be9f4fed5509f9eff5beb3554c13fb3b56aa0b59e7442664736f6c634300081a0033","linkReferences":{}},"methodIdentifiers":{"depositPosition(address,bytes32,uint256)":"226e1b26","getLockedAmount(address,bytes32)":"f1167547","hook()":"7f5a7c7b","locked(address,bytes32)":"d71be8db","releasePosition(address,bytes32,uint256,address)":"016ca806","setHook(address)":"3dfd3873"},"id":85}